:100000000C944E030C948F1F0C946B030C946B0395
:100010000C946B030C946B030C946B030C946B03A8
:100020000C946B030C946B030C946B030C94E02105
:100030000C946B030C946B030C9442220C946B0392
:100040000C946B030C946B030C942D1F0C945D1F8C
:100050000C946B030C946B030C946B030C946B0368
:100060000C946B030C946B0300535300547D7DFF81
:10007000FF4B4B7E7E00504C4C310D0A00504C4CD7
:10008000300D0A000D0A0020436865636B73756DBF
:10009000204572726F722C2043616C63756C6174C1
:1000A000656420436B733A20006B72000D0A0020D8
:1000B00020526563656976656420446174613A2005
:1000C00000427974657320696E204669666F3A2034
:1000D0000000030F1E2627000000030F1E253638E0
:1000E0006700030F256740605000030F2751888386
:1000F0008100030F2750C8C3C20027000000000082
:100100000000670000000000000050000000000038
:1001100000008100000000000000C200000000009C
:1001200000202F2000203D20004E2F4100454F424F
:100130000D0A004E2F41004E2F4100202F2000209D
:100140003D2000072E050DD391FF080500000C008F
:1001500021656A2D3B1322F862073F181D1CC7005A
:10016000B0876BF8B611EA2A001F41000D2E2D074B
:10017000D3913D04320000060021656A55E4302326
:10018000B900070018146C070090876BF85611E946
:100190002A001F41005620312E36372065737043E8
:1001A000554C383638005620312E3637206573705E
:1001B00043554C343333000D2E2D07D3913D04327B
:1001C0000000060010B07155E43023B90007001894
:1001D000146C070090876BF85611E92A001F410044
:1001E000012E4604AA540FE0000000060021656AB3
:1001F00097831663B947070C29366C074091876BC4
:10020000F85611E92A001F410054585F494E4954DD
:100210005F4552525F004B6F707020436F6D6D6190
:100220006E6420556E6B6E6F776E0D0A004B6F70AB
:1002300070205265636569766520537562436F6D02
:100240006D616E6420556E6B6E6F776E0D0A005295
:10025000585F494E49545F4552525F4D4152435396
:10026000544154455F5258006B72532D526563657B
:1002700069766553746172740D0A006B72452D5274
:10028000656365697665456E640D0A002042797480
:100290006573206F72204B6579636F6465206973A5
:1002A000206E6F206865782076616C75650D0A0098
:1002B0004B6F7070205472616E736D69747420435B
:1002C0006F6D6D616E64206E6F7420657175616C09
:1002D00020746F2000426C6F636B330D0A00426C18
:1002E0006F636B320D0A005B6865785D0D0A007400
:1002F00069636B732D426C6F636B537461727454DA
:10030000696D653A20005B6865785D0D0A004B6594
:10031000794F666654696D653A20202020202020A0
:1003200020202020005B6865785D0D0A00426C6F1C
:10033000636B2053746172742054696D653A202098
:10034000202020005B6865785D0D0A005469636BAE
:100350002054696D65723A20202020202020202022
:100360002020005B6865785D0D0A004B65794F665B
:100370006654696D6520696E207469636B733A20F9
:1003800020006D7365630D0A004B65794F666654F6
:10039000696D653A20202020202020202020200088
:1003A0000D0A005469636B2054696D65723A202010
:1003B000202020202020202020000D0A000D0A41AE
:1003C0006D6F756E74206F66204279746573202896
:1003D0004865782920666F756E6420696E7369645C
:1003E0006520636F6D6D616E64206C696E65207051
:1003F0006172616D657465723A2020202020202092
:1004000020202020000D0A4E657874204368617218
:1004100061637465722028696E7429206166746551
:100420007220706172616D65746572202873686FE7
:10043000756C64206265206C696E6520656E642051
:10044000636861726163746572293A20000D0A5312
:100450007472696E676C656E6774683A202020203C
:100460002000636F6D6D616E646C696E65706172A2
:10047000616D657465723A20005472616E736D69C6
:1004800074740D0A000B08105B11F81547191D1A3A
:100490001C1BC71C001DB221B623EA0007022E0355
:1004A0000D04E905CA070C0B060D210E650F6A1035
:1004B000C81193120315341733181819161B43214A
:1004C000562500261129592C812D353EC3455252FF
:1004D0003A4343410D0A000007024604C605260BB5
:1004E0000610C81193120313221534173F18281948
:1004F000161B432156250026110D210E650F6A0794
:100500000C160720F81E871F6B29592C812D353EAC
:10051000C3FF004C4F56460D0A004C454E45525203
:100520000D0A00424F56460D0A0000070246030D11
:10053000049A057D0642070C0B060D210E650F6A15
:1005400010C81193120315341700181819161B43FD
:100550001C6825002611FF000000000000000000BC
:100560000000000000004C4F56460D0A000001023A
:100570002E030104AA050F06FF070008000B060D55
:10058000210E740FAD104B11F8121613721541188D
:100590001819161B0323E9242A2500261F3E5000A4
:1005A00001022E030104AA050F06FF070008000B35
:1005B000060D210E660F6610CA119312061352150E
:1005C00035181819161B0323E9242A2500261F3E77
:1005D000500001022E0301045505F006FF07000834
:1005E000000B060D210E660F9910591183121E1370
:1005F000521535181819161B0323E9242A2500263D
:100600001F3E500D2E2D07D3913D043200000600F1
:1006100010ABA5550A3023B900070018146C070069
:1006200090876BF85611E92A001F41004154184287
:10063000991B437B0A458A0865A41E461B16664A19
:100640001B474C1568A713694B194B19146B330CD6
:100650006CC11B4DB9146D5C0752140F542A1C74E5
:10066000C30755E41356A20657D41B5874127814C6
:100670001F5917105AB1177AD8090000000000005E
:1006800020697320756E6B6E6F776E2920557365C8
:10069000206F6E65206F66003F20280011241FBE6A
:1006A000CFEFD8E0DEBFCDBF11E0A0E0B1E0E0E1E8
:1006B000F1E602C005900D92A834B107D9F725E004
:1006C000A8E4B1E001C01D92A833B207E1F70E948F
:1006D00091220C9486300C940000FC0130E020E064
:1006E0008AE09191911104C0FB0131832083089528
:1006F00040ED490F4A30A8F7829FA001839F500D1B
:1007000011249A0120533109290F311DEACFDC0150
:10071000FB0130E020E012C08FEB890F863010F42F
:10072000975317C0903251F09A3341F0CF01861B96
:10073000970B0895292F2295207F31E09D919923D1
:10074000A9F3913608F0905280ED890F8A3020F796
:10075000982F922B332371F39F012F5F3F4F90838C
:10076000415011F4C901E3CFF901D3CF880F991F8C
:100770000197F1F70895FC012FB7F8948281811158
:1007800002C02FBF08959FEF980F9283A18191E03F
:100790009A0F9183AE0FBF2FB11D13968C91903895
:1007A00081F71182EECFFC019FB7F894828187FF19
:1007B00002C09FBF08958F5F8283A08181E08A0F6E
:1007C0008083AE0FBF2FB11D13966C93803889F7CD
:1007D0001082EFCFCF93DF93FC012FE03DE170E07B
:1007E000AF01481B590B4617570724F0C901DF9189
:1007F000CF910895A191432F5527EA01CA27DE0121
:10080000AD01C4E056954795CA95E1F74A275B27A5
:10081000322F222724273527DA01BA2FAA27B295AB
:10082000B07F2A273B27D5E0440F551FDA95E1F723
:1008300024273527D5CFCF93DF93DA01EC91882396
:1008400069F0EB01CE0FD11DA1E0B0E0022E01C096
:10085000AA0F0A94EAF788818A2B8883222331F031
:100860002150822F90E0DF91CF910895EF5FEC301F
:1008700010F4DA01EC93E60FF72FF11D108227E058
:10088000F0CFCF93C82F5B9A8091DE02C11102C0D6
:100890008091E00220E1829FC00111240E94B603F2
:1008A0005B988091DD02C11102C08091DF0220E1DE
:1008B000829FC0011124CF910C94B603CF93DF9394
:1008C000FC0185E1273009F08CE0218130E050E027
:1008D000E901C41BD50BE08190E0C817D907FCF4EF
:1008E000AA27BB27A81BB90BAC17BD07C4F4F0E0BF
:1008F00070E0EF01C61BD70BC817D90784F4AC17FB
:10090000BD076CF42E0F3F1F460F571F241B350BDE
:100910002817390724F481E0A217B3070CF080E010
:10092000DF91CF91089510926F00E091D8028CE191
:10093000E89FF0011124E056FD4F108280919A0249
:100940008D7F80939A020895CF93DF93DC011196F7
:10095000EC911197E43120F0DF91CF910C94930446
:1009600013968C911397662369F0ED01CE0FD11D7C
:1009700021E030E0082E01C0220F0A94EAF79C81A2
:10098000922B9C83882331F0815013968C93DF91B6
:10099000CF91089587E013968C931397EF5F11968C
:1009A000EC931197EA0FFB2FF11D1482F0CFFC019D
:1009B00082819381A081B181A80FB11D2C9130E07B
:1009C000092E02C0359527950A94E2F721703FEF72
:1009D000390F3383911104C08F5F828387E0838353
:1009E000822F0895AF92BF92CF92DF92EF92FF9243
:1009F0000F931F93CF93DF937C01062FA42ED0E09B
:100A0000C0E010E0BB24B394862F8150990B6C0199
:100A1000C7010E94D704882361F0AA20C9F0C6014B
:100A20008C1B9D0B2B2D01C0220F8A95EAF7822F7C
:100A3000182B2196C01760F3812FDF91CF911F9162
:100A40000F91FF90EF90DF90CF90BF90AF900895FF
:100A50008B2D0C2E01C0880F0A94EAF7E9CF8F92F4
:100A60009F92AF92BF92CF92DF92EF92FF920F933D
:100A70001F93CF93DF93DC0110929902109298029A
:100A80001196AC901197AA0CAA0CAA0C13968C91F3
:100A90001397A81A8A2D97E0B92EBA0C10928402E7
:100AA00028E0A22EA80EE1E090E050E047E077E0D9
:100AB000F0E037E0E32EF12C01E010E0EA1111C084
:100AC0005093990290939802BE1608F06CC065345A
:100AD00009F096C04F3F09F093C09F5F9093980232
:100AE00091C09D012F0F311DE9012C8130E0072EAF
:100AF00002C0359527950A94E2F7822F81707723FB
:100B0000D9F071506B3491F5433009F081C0511127
:100B100016C0811173C01092990290939802DF91D0
:100B2000CF911F910F91FF90EF90DF90CF90BF90EA
:100B3000AF909F908F900895FF5F77E0E3CF50E0F4
:100B4000882309F459C0292F30E02C573D4F670105
:100B5000C41AD10847FDD394E80102C0CC0FDD1FB1
:100B6000CA94E2F76E01E901888140C04F3F71F5F8
:100B70006634D9F4292F30E02C573D4FE901288104
:100B8000022E22952025022E2695269520252F5FC0
:100B900021FB882480F8912C8815190469F0509362
:100BA00099029093980280E0BACF653429F48111BC
:100BB00003C050939902B1CF9F5F292F30E02C578B
:100BC0003D4FE901188247E0EF5F78CF8823A1F01D
:100BD000663479F4292F30E02C573D4FE9018881A4
:100BE0006801042E01C0CC0C0A94EAF7C82AC88216
:100BF00003C0653409F4A7CF4150E6CF51E0E4CFFC
:100C000051116BCF81E090919802911188CFCBCF99
:100C10004F3F09F095CFCBCFFC015091990295E061
:100C200020E08FEF860F611107C0920F30E1939F94
:100C3000C0011124822B08956150DF01A60FB11D60
:100C40003C91432F42954F702427940F552311F068
:100C5000681749F33F702327930FE5CFE0ECF1E0ED
:100C6000208121110DC0B2E0EE36FB0719F010F023
:100C7000EEE6F2E0892B11F0F0E0E0E0CF0108951C
:100C800032E0EE36F30778F7009751F04181DC014E
:100C90003C91431305C0428111963C91431771F377
:100CA000E20FF11DDDCF8BE295E00E942E0600974A
:100CB000A1F0E0913105DC012C91E21770F4E80F0E
:100CC000F92FF11D808180932D0589E780932E05F2
:100CD000818180932F0581E0089580E0089510922E
:100CE000BD011092BC0183E0809331058FEF8093AA
:100CF000BE01089590912A0590FF0FC090919C032A
:100D00009E3730F097FD09C08D3011F08A3029F4FC
:100D1000682F8AE993E00C94D30308958DE00E9434
:100D20007A068AE00C947A06CF93DF93EC01FE01F9
:100D30008491811103C0DF91CF9108950E947A06BA
:100D40002196F5CF4C9906C086EA91E00E94940660
:100D50000C948E0685E991E0F9CFCF93DF93EC01F7
:100D60008991811103C0DF91CF9108950E947A0685
:100D7000F7CFCF93DF9300D000D01F92CDB7DEB76F
:100D8000AC011D8294E0242F2F702A3048F5205D9D
:100D90009150E1E0F0E0EC0FFD1FE90FF11D208321
:100DA00084E0569547958A95E1F7615041155105C4
:100DB00051F780E3615067FD02C0911113C021E03B
:100DC00030E02C0F3D1F290F311DC9010E94AD06D7
:100DD0000F900F900F900F900F90DF91CF9108958B
:100DE000295CD6CF9150E1E0F0E0EC0FFD1FE90F58
:100DF000F11D8083DFCF62E090E00C94B9060F9381
:100E00001F93CF93DF938C0184E50E947A06E8015B
:100E10000B5F1F4F89910E94FB06C017D107D1F7C6
:100E20008091200485FF03C08AEF0E94FB06DF91BA
:100E3000CF911F910F910C948E060F931F93CF9318
:100E4000DF9300D000D000D0CDB7DEB7362F1E82A2
:100E5000FE01369625E00AE010E02150B8010E941C
:100E60003B30805D8293CB0131500097C9F480E222
:100E7000315037FD02C0211116C081E090E08C0F87
:100E80009D1F820F911D0E94AD0626960FB6F89405
:100E9000DEBF0FBECDBFDF91CF911F910F9108959F
:100EA0002111DBCFE4CF2150E1E0F0E0EC0FFD1F9A
:100EB000E20FF11D8083DCCFCF93DF9382E40E94A9
:100EC0007A06C0913205D091330565E0CE010E94CB
:100ED0001D070E948E0683E50E947A0665E08091D8
:100EE0002E0190912F010E941D070E948E0685E41D
:100EF0000E947A0665E080912C0190912D010E945C
:100F00001D070E948E0686E40E947A06209721F42F
:100F1000C0912E01D0912F0180912C0190912D0133
:100F2000009741F48DB79EB7209130013091310187
:100F3000821B930BC817D90748F48C1B9D0B65E0E7
:100F40000E941D07DF91CF910C948E0690E080E007
:100F5000F6CF20ED37E0815008F40895F90131977C
:100F6000F1F7F9CFFC019FB7F8944091E502509159
:100F7000E6026091E7027091E80240835183628348
:100F800073839FBF0895CF93DF9300D000D0CDB778
:100F9000DEB7CE0101960E94B2078C810E94FB064B
:100FA0008B810E94FB068A810E94FB0689810E9438
:100FB000FB060E948E060F900F900F900F90DF910E
:100FC000CF9108958EBD0DB407FEFDCF8EB5089567
:100FD0002A980E94E2072A9A08950F931F93CF93AD
:100FE000CFEF04E110E084E30E94E807C15080776E
:100FF000803129F0C8010197F1F7C111F4CFE89AC7
:10100000CF911F910F9108950E94ED07E8980895E0
:101010000F931F93CF93E89886E30E94E807CFEFE2
:1010200004E110E085E30E94E807C1508077803238
:1010300029F0C8010197F1F7C111F4CFCF911F91A9
:101040000F910895CF93C62F2A9880640E94E207DB
:101050008C2F0E94E2072A9ACF9108950F931F9335
:10106000CF93DF93229A2A9A8CE390E0FC01319788
:10107000F1F72A980197F1F72A9A8AE590E001970B
:10108000F1F780E30E94E80788EC90E00197F1F720
:10109000809199038933D9F4C1EDD5E003E016E0DE
:1010A000FE0131966491FE0184910E9422082296ED
:1010B0000C171D07A9F783E30E94E80784E00E944C
:1010C000A907DF91CF911F910F910C9404088433ED
:1010D00081F4CFE9D5E001ED15E0FE013196649190
:1010E000FE0184910E94220822960C171D07A9F781
:1010F000E2CF813301F7CDE6D5E0FE013196649170
:10110000FE0184910E9422082296F5E0CF39DF0784
:10111000A1F7D1CFCF93DF93FC018181823709F012
:1011200034C0E898229A2A9A8CE390E0FC01319727
:10113000F1F72A980197F1F72A9A8AE590E001974A
:10114000F1F780E30E94E80788EC90E00197F1F75F
:10115000CAE2D5E0FE018491813458F4319664915D
:10116000FE0184910E9422082296F5E0C636DF0730
:1011700089F783E30E94E80781E00E94A90781E0E4
:101180008093DA02DF91CF9108958337D9F31092DB
:10119000DA02F8CF0F931F93CF93DF93E898229A48
:1011A0002A9A8CE390E0FC013197F1F72A98019795
:1011B000F1F72A9A8AE590E00197F1F780E30E941F
:1011C000E80788EC90E00197F1F7C7EDD4E0FE0165
:1011D0008491813458F431966491FE0184910E9487
:1011E00022082296F5E0C331DF0789F783E30E94E6
:1011F000E80784E00E94A907CFEF04E110E084E350
:101200000E94E807C1508077803129F0C80101971A
:10121000F1F7C111F4CF81E080931E04DF91CF91EB
:101220001F910F9108952A98806C0E94E20780E038
:101230000E94E2072A9A0895CF92DF92EF92FF92DE
:101240000F931F93CF93DF937C01C62F299A809130
:101250009903893339F464E182E10E9422086C2FFA
:10126000660F6D5E86E00E9422080E9408082A9898
:101270008FE70E94E20780919903893371F087011B
:10128000CE0DDF2DD11DC017D10709F1F8018191D5
:101290008F0180950E94E207F6CFDFE086E60E948C
:1012A000E207D150D9F78AEA0E94E20785E50E9459
:1012B000E207670187010C0F111D0C151D0509F0D0
:1012C00051C080E00E94E20780E00E94E2072A9A73
:1012D00085E30E9413098331D9F36FEF86E00E9402
:1012E000220880919903893321F46EE182E10E9402
:1012F00022080E9404082998F701858186FF29C0E9
:101300008091E5029091E602A091E702B091E80297
:101310000696A11DB11D8093E1029093E202A09375
:10132000E302B093E402C0919703CF5FC0939703A9
:10133000C23078F08AE70E947A0682E70E947A0635
:101340008C2F0E94FB060E948E06C23011F0109274
:101350009703DF91CF911F910F91FF90EF90DF9056
:10136000CF900895F601C1916F0180E4C7FD80E838
:1013700090E1C6FD90E2980F84E0C5FD88E0890FFA
:1013800091E0C4FD92E0890F0E94E20780E4C3FD72
:1013900080E890E1C2FD90E2980F84E0C1FD88E012
:1013A000890F91E0C0FD92E0890F0E94E20785CF8E
:1013B000FC012181223711F02D3659F4FC01828184
:1013C000811101C084E380939903209398030C94C6
:1013D0002E08233779F41092970348EA6FEE72E0F3
:1013E00002960E9487038093EE02682F8FEE92E0B0
:1013F0000C941C09293669F52281222331F045E03D
:1014000069EE72E002960C948703809198030E9423
:101410007A06809199030E947A0680E20E947A06F9
:101420008091E9020E94FB068091EA020E94FB067D
:101430008091EB020E94FB068091EC020E94FB0669
:1014400080E20E947A068091ED020E94FB060C94D5
:101450008E061092980308950F931F93CF93DF93F6
:10146000E898229A2A9A8CE390E0FC013197F1F7F0
:101470002A980197F1F72A9A8AE590E00197F1F707
:1014800080E30E94E80788EC90E00197F1F7CBE950
:10149000D4E0FE0131966491FE0184910E942208FD
:1014A0002296F4E0CD3CDF07A1F7809179028823F2
:1014B00079F0C5E8D4E00BE914E0FE0131966491BF
:1014C000FE0184910E94220822960C171D07A9F79D
:1014D00083E30E94E80784E00E94A90784E30E9456
:1014E000E80785E30E9413098D30C1F7DF91CF91A2
:1014F0001F910F9108950F931F93CF93DF9300D007
:10150000CDB7DEB78C01FC018181873731F541E031
:10151000BE016E5F7F4FC80102960E948703892B30
:10152000E1F041E0BE016F5F7F4FC80104960E9469
:101530008703892B91F069818A810E94220883E3C5
:101540000E94E8070E94ED078A810E94FB068981BC
:101550000E94FB060E948E061CC041E0BE016F5F28
:101560007F4FC80101960E948703892B91F08981E2
:101570008939B1F410E0812F0E9413090E94FB0603
:10158000812F8770873011F40E948E061F5F103301
:1015900091F70F900F90DF91CF911F910F910895C8
:1015A0000E941309182F83E40E947A0689810E9401
:1015B000FB0685E291E00E949406812F0E94FB06C3
:1015C00081E291E00E94940662E0812F90E00E9407
:1015D0001D07C0CF0F931F93CF93DF93D0912A05A0
:1015E00080932A05C3E08091A904811107C0D0939C
:1015F0002A05DF91CF911F910F91089587EA94E01A
:101600000E94BB032091A5043091A6048A3019F0F2
:101610008D3009F04EC02115310529F32C5D3B4F6B
:10162000F901108240912404042E000C550B20E097
:101630002C9FC0011124FC01E45DF94F1491FC01C1
:10164000E35DF94F65917491112371F0141715063C
:1016500049F484E294E0FB0109951092A6041092EB
:10166000A504C1CF2F5FE4CF88E996E00E949406DD
:1016700084E294E00E94AD0680E896E00E94940621
:101680001C9F90011124F901E45DF94F0491F901C7
:10169000E35DF94F85919491002341F080E20E942F
:1016A0007A06802F0E947A061F5FEACF0E948E067C
:1016B000D4CF2038310508F096CFA9014F5F5F4F96
:1016C0005093A6044093A5042C5D3B4FF901808301
:1016D0008ACF0C94A22F0F931F93CF93DF93E89898
:1016E000229A2A9A8CE390E0FC013197F1F72A982C
:1016F0000197F1F72A9A8AE590E00197F1F780E3E4
:101700000E94E80788EC90E00197F1F72A9880E4BE
:101710000E94E207C0EED1E009E012E0FE018491F0
:101720000E94E20721960C171D07C1F72A9A2A98F2
:101730008EE70E94E2078BE290E0EC0121960E9486
:10174000690B0E94E207CE01E397B9F72A9A83E377
:101750000E94E80781E00E94A90781E080931D04B0
:10176000DF91CF911F910F910895BF92CF92DF9299
:10177000EF92FF920F931F93CF93DF938C01809191
:101780007102F801838364839DE0C92ED12C0E94ED
:10179000080885E30E9413098331B1F089E092E0E3
:1017A0000E94940685E30E9413090E94FB060E9492
:1017B0008E06DF91CF911F910F91FF90EF90DF90F8
:1017C000CF90BF900C946B0B8091E5029091E60254
:1017D000A091E702B091E8028093740290937502A1
:1017E000A0937602B09377022A988FE70E94E207CF
:1017F0007801D0E0C0E08AEAB82EF70180810E942B
:10180000E207C930D10544F4F7018081B826C7301A
:10181000D10511F4F801B0862196FFEFEF1AFF0A07
:10182000CF30D10551F72A9AC8EC85E30E941309FD
:10183000833129F481E00E94A907C150B1F781E00A
:10184000C81AD10809F0A3CF809171028F5F8093ED
:101850007102DF91CF911F910F91FF90EF90DF9078
:10186000CF90BF9008954F925F926F927F928F9228
:101870009F92AF92BF92CF92DF92EF92FF920F931F
:101880001F93CF93DF93CDB7DEB7EF970FB6F894E2
:10189000DEBF0FBECDBF7C01FC0101900020E9F747
:1018A0003197AF01481B590B6C0122E0C20ED11CCD
:1018B000BE01625D7F4FC6010E948703082F61E46D
:1018C00071E089E091E00E947030D70111961C917F
:1018D00011978DE8810F823008F0E7C181E0809395
:1018E00078021F968C918A3409F0CFC189E58093E4
:1018F0000801A8954090E5025090E6026090E7024A
:101900007090E8028090E5029090E602A090E702D5
:10191000B090E8028092740290927502A0927602D2
:10192000B092770280910801893509F047C089E7B4
:1019300094E00E94940682E694E00E949406C70117
:101940000E94AD068DE494E00E949406F701019098
:101950000020E9F7CF01019760E08E199F090E94EE
:101960001D0785E094E00E949406F7010190002095
:10197000E9F73197808160E0082E000C990B0E94F6
:101980001D078DEB93E00E94940660E0802F90E0AD
:101990000E941D078AEB93E00E94940683EA93E07D
:1019A0000E94940664E0C5010E94B90664E0C40187
:1019B0000E94B90680EA93E00E949406D7010D9038
:1019C0000020E9F7CD0141978E159F0509F05FC111
:1019D00042E0BE01625D7F4FC6010E94870302970D
:1019E00009F055C10E946B0B0EA5B701665F7F4FD2
:1019F00045E050E0CE0101960E9477301E824AE019
:101A000050E070E060E0CE0101960E947F2E6B01F5
:101A10007C01AC019B0163E056954795379527956E
:101A20006A95D1F72CAF3DAF4EAF5FAF8091080103
:101A3000893529F589E893E00E949406CE01019644
:101A40000E94AD0682E893E00E9494068BE693E044
:101A50000E94940664E0D701C60133E1B695A795CC
:101A6000979587953A95D1F70E94B90664E08CADB9
:101A70009DAD0E94B90683E693E00E9494068FE034
:101A8000E2E3F1E0DE015F9601900D928A95E1F7C5
:101A90008FA588A388A989A389A98EA3602FCE01C9
:101AA0004F960E94B50B133709F4D0C007FFCEC084
:101AB0008091E5029091E602A091E702B091E802E0
:101AC00084199509A609B7098E379105A105B105B5
:101AD00048F44090E5025090E6026090E702709072
:101AE000E802A8958091E5029091E602A091E702B4
:101AF000B091E8028090740290907502A0907602F6
:101B0000B090770288199909AA09BB092CAD3DAD9F
:101B10004EAD5FAD281739074A075B0748F640907E
:101B2000E5025090E6026090E7027090E8021091A2
:101B30000801193509F062C08CE493E00E94940614
:101B400064E0C3010E94B90664E0C2010E94B906C4
:101B500084E493E00E9494068DE293E00E94940650
:101B600064E0C5010E94B90664E0C4010E94B906A0
:101B700085E293E00E9494068EE093E00E94940632
:101B8000D701C60123E1B695A795979587952A9524
:101B9000D1F764E00E94B90664E08CAD9DAD0E946F
:101BA000B90686E093E00E9494068FEE92E00E94D0
:101BB00094068091E5029091E602A091E702B0912F
:101BC000E80288199909AA09BB0964E0CD010E94BD
:101BD000B9068091E5029091E602A091E702B091EA
:101BE000E8028819990964E00E94B90687EE92E03C
:101BF0000E9494068EED92E00E94940667EFCE015B
:101C00004F960E94B50B40917402509175026091FD
:101C10007602709177028091E5029091E602A091A0
:101C2000E702B091E802841B950BA60BB70B459712
:101C3000A105B10580F3193521F485ED92E00E94EC
:101C4000940667EFCE014F960E94B50B8091730208
:101C5000813011F40E94ED0710927802EF960FB6D2
:101C6000F894DEBF0FBECDBFDF91CF911F910F91D2
:101C7000FF90EF90DF90CF90BF90AF909F908F90AC
:101C80007F906F905F904F9008958EE430CE80EB00
:101C900092E00E94940660E08EE090E00E941D07B2
:101CA0008CE892E00E949406D1CF123709F044C02C
:101CB00012968C91853461F41092730286E30E942F
:101CC000E807109272028BE792E00E949406C6CF5A
:101CD000833579F5F7018381813321F581E08093A4
:101CE000720281E0809373020E946B0B88E692E09F
:101CF0000E9494060E94ED0785E30E9413098D302F
:101D000009F4ACCF8FE492E00E94940685E30E9430
:101D100013090E94FB060E948E060E946B0B109214
:101D200073029CCF823311F482E0D9CF10927202F9
:101D3000D8CF8DE292E0C9CF86E192E0C6CFCF93B3
:101D4000DF93E898229A2A9A8CE390E0FC0131977D
:101D5000F1F72A980197F1F72A9A8AE590E001971E
:101D6000F1F780E30E94E80788EC90E00197F1F733
:101D70002A9880E40E94E207C7EBD1E0FE0184913B
:101D80000E94E2072196F1E0C43CDF07B9F7809199
:101D900001010E94E207809102010E94E207809106
:101DA00003010E94E207D0E0C0E0FE01E953FE4FCC
:101DB00084910E94E2072196C931D105B1F72A9A90
:101DC0002A988EE70E94E2078BE290E0EC012196D0
:101DD0000E94690B0E94E207CE01E397B9F72A9AA5
:101DE00083E30E94E80781E00E94A90781E08093D5
:101DF0001D04DF91CF9108950F931F93CF93C62FAA
:101E0000C15020F4CF911F910F9108958C010F5F65
:101E10001F4F0E94690B0E94FB06CC2319F08AE336
:101E20000E947A06C801ECCFFF920F931F93CF93C5
:101E3000DF9300D0CDB7DEB7FC0121812D3479F4DA
:101E400066E08AEF93E00E94FC0E0E948E060F90DF
:101E50000F90DF91CF911F910F91FF900895203542
:101E600021F460E18AED93E0EECF1A82198242E01C
:101E7000BE016F5F7F4F01960E948703098110E0CA
:101E8000823029F409811A81102701271027C801FF
:101E90000E94690BF82E82E50E947A0664E0C80170
:101EA0000E94B9068FE391E00E9494068F2D0E9454
:101EB000FB068BE391E00E94940662E08F2D90E098
:101EC0000E941D07C2CFCF9385E390E00E94690B6B
:101ED0008093A60186E390E00E94690B8093A501A0
:101EE000E5E9F1E0CFEFC083C283C483C683C08736
:101EF000C287C487C6870E946F061092C00181E026
:101F000080937A01ACEAB1E0CC93EBE7F1E08FEF9C
:101F10009FEF91838083138212821582148214961C
:101F2000CC93149797838683118610861386128626
:101F30001896CC9318979587848717861686118AEA
:101F4000108A1C96CC93938B828B158A148A178ADD
:101F5000168ACF910895EF92FF920F931F93CF931C
:101F6000DF93EC0110921E04E898229A2A9A8CE3DF
:101F700090E0FC013197F1F72A980197F1F72A9A3E
:101F80008AE590E00197F1F780E30E94E80788EC8A
:101F900090E00197F1F72A9880E40E94E2078E0111
:101FA000075D1F4F7E018FEFE81AF80ACE010E94ED
:101FB000690B0E94E207E7010E151F0599F72A9A9F
:101FC0002A988EE70E94E2078BE290E0EC012196CE
:101FD0000E94690B0E94E207CE01E397B9F72A9AA3
:101FE00083E30E94E80781E0DF91CF911F910F9179
:101FF000FF90EF900C94A90780912004882369F04A
:1020000082E090E00E94AB0F81E080931D0410926B
:10201000220410921E040C94ED0786E30E94E80748
:1020200010921D041092220410921E0408952F9203
:102030003F924F925F926F927F928F929F92AF9258
:10204000BF92CF92DF92EF92FF920F931F93CF93A5
:10205000DF931F92CDB7DEB77C01FC01818183370E
:1020600009F0C2C1198287E090E00E945A2D8C01CC
:1020700041E0BE016F5F7F4FC70102960E94870358
:102080008981F801808341E0BE016F5F7F4FC70106
:1020900004960E9487038981807FB82EF80181838E
:1020A00041E0BE016F5F7F4FC70106960E94870324
:1020B0008981F801828341E0BE016F5F7F4FC701D4
:1020C00008960E9487038981F801838341E0BE015D
:1020D0006F5F7F4FC7010A960E9487038981F801CD
:1020E000868341E0BE016F5F7F4FC7010C960E945F
:1020F00087038981F801858341E0BE016F5F7F4FCF
:10210000C7010E960E9487038981F8018483A80184
:10211000495F5F4F680180E0F60121916F01922FC6
:1021200092959F7092278927E417F507A9F78F707A
:102130008B29F801818387E090E00E945A2D7C0171
:1021400087E0F801D70101900D928A95E1F7980197
:102150002A5F3F4FF801DF01319611968C9111975C
:102160009C91892780832E173F07A9F7299A809190
:102170001F0481115FC080912204882329F081E02F
:10218000809323041092220480911E04882329F056
:1021900081E08093210410921E04E898229A2A9AE2
:1021A0008CE390E0FC013197F1F72A980197F1F761
:1021B0002A9A8AE590E00197F1F780E30E94E80708
:1021C00088EC90E00197F1F72A9880E40E94E207FA
:1021D00073E0A72E76E0B72EECE28E2EE6E09E2E80
:1021E000F50184910E94E207FFEFAF1ABF0A8A143B
:1021F0009B04B1F72A9A2A988EE70E94E2078BE2A5
:1022000090E05C012FEFA21AB20A0E94690B0E94B3
:10221000E207C50183339105A1F72A9A83E30E945F
:10222000E80781E00E94A90781E080931D0483E014
:102230000E94A90786E30E94E8078AE30E94E80754
:102240008BE30E94E8070E9408085B9A8EE899E4F5
:102250000197F1F75B9889E50E94A9078AE694E067
:102260000197F1F7312C6CEE462E63E1562E20914A
:102270002B01832D032C000C990B2817190609F04C
:102280006CF480911F04882309F496C08091200487
:10229000882309F45FC00E94ED075FC097E031100A
:1022A00001C092E080E05B9AF2013197F1F75B9810
:1022B000F2013197F1F78F5F9813F5CF5B9A88EFB2
:1022C00095E20197F1F75B988091270190912801A1
:1022D0000E94B6033801F30181903F0148E0242EAB
:1022E00050E8A52EB12C912CC4018A219B21892B69
:1022F00029F55B9A80912701909128010E94B603ED
:102300005B9880912701909128010E94B603B694B2
:10231000A7942A942110E8CFC614D704E1F65B985D
:10232000F801868187FD13C08091270190912801D3
:10233000815399480E94B603339499CF5B9880915A
:102340002701909128010E94B6035B9ADACF8FECA7
:1023500096E7F0CF86E30E94E807299889E50E9476
:102360007A0683E70E947A0667015701F7E0AF0E0D
:10237000B11CF60181916F010E94FB06AC14BD04F3
:10238000C1F70E948E06C7010E94F62DC8010F906A
:10239000DF91CF911F910F91FF90EF90DF90CF9041
:1023A000BF90AF909F908F907F906F905F904F9075
:1023B0003F902F900C94F62D80912304882341F0B8
:1023C000109223040E942C0A81E08093220463CFA0
:1023D00080912104882329F0109221040E94CA08C8
:1023E000BCCF0E94FC0FB9CF823759F56BE271E088
:1023F000C70102960E946D0389E50E947A0682E772
:102400000E947A068AE30E947A0680912B0160E09E
:1024100090E00E941D070E948E060F90DF91CF91E1
:102420001F910F91FF90EF90DF90CF90BF90AF90F2
:102430009F908F907F906F905F904F903F902F90E4
:102440000895843749F582818033F9F488ED94E06A
:1024500090932A01809329018091290190912A016A
:1024600096958795909328018093270189E50E948E
:102470007A0684E70E947A068AE30E947A0666E07A
:102480008091290190912A01C4CF69E271E0C701CE
:1024900002960E946D03E0CF883709F0BECF80918D
:1024A0002304882351F0109223040E942C0A81E017
:1024B000809322040E94ED0708C0809121048823A4
:1024C00039F0109221040E94CA0810921F04A5CF6F
:1024D00082E090E00E94AB0F809120048111EACF4E
:1024E00086E30E94E807F1CFFC01218121110DC094
:1024F000809120040E94FB0665E08091DB029091B0
:10250000DC020E941D070C948E0641E060E274E03C
:1025100001960E9487030C94FC0F2F923F924F92DA
:102520005F926F927F928F929F92AF92BF92CF9263
:10253000DF92EF92FF920F931F93CF93DF93CDB76C
:10254000DEB72A970FB6F894DEBF0FBECDBF4C01A1
:10255000D62E4887422EED82942F9E5F8C2D8A0DB9
:10256000909F800D1124082E000C990B2091DB0206
:102570003091DC0228173907E0F486E695E02A96C8
:102580000FB6F894DEBF0FBECDBFDF91CF911F9184
:102590000F91FF90EF90DF90CF90BF90AF909F9002
:1025A0008F907F906F905F904F903F902F900C9402
:1025B0009406281B390B3093DC022093DB02299A06
:1025C000B0901E04BB2041F010921E0484E491E000
:1025D0000E947412BB24B39480911D0481110BC01E
:1025E00082E090E00E94AB0F81E080931D04109286
:1025F000220410921E040E94080880E1C89E9001E7
:1026000011243A83298320E1A29EF0011124FC8346
:10261000EB838D2D90E09F838E839885E92EF12C9E
:1026200066246394712C512CC11002C0AA2051F071
:102630005B9A89819A810E94B6035B988B819C8109
:102640000E94B6031886F8858F2FFF0F990B2E81F5
:102650003F81821793070CF446C0DD2019F081E01A
:102660000E94410410E0812F012E000C990B9A87E3
:1026700089878E159F050CF43DC017E0880D991DC4
:102680009A878987812F012E000C990B48165906CD
:102690000CF44BC08D810E94A907015029F680914E
:1026A0002004882309F44FC00E94ED07B1100E9456
:1026B000CA0829982A960FB6F894DEBF0FBECDBF80
:1026C000DF91CF911F910F91FF90EF90DF90CF900E
:1026D000BF90AF909F908F907F906F905F904F9042
:1026E0003F902F90089580E00E944104E885EF5FBD
:1026F000E887A9CF87E0282E312C89859A85880D17
:10270000991D9A878987C301022C01C0880F0A94FA
:10271000EAF7E985FA85908189230E944104F1E076
:102720002F1A310880F71F5F9ECFC301012E01C011
:10273000880F0A94EAF7E985FA85908189230E9437
:10274000410411509FCF86E30E94E807AFCFAF92BC
:10275000CF92EF920F93CF93DF93CDB7DEB72C9745
:102760000FB6F894DEBF0FBECDBF4BE0BE016F5F6A
:102770007F4F02960E9487038530C9F48EE38093D1
:10278000E0028CE18093DF0281E28093DE028AE343
:102790008093DD0285E2A82E9AEFC92EE12C05E098
:1027A00024E044E068E0CE0101960E948D122C9650
:1027B0000FB6F894DEBF0FBECDBFDF91CF910F9162
:1027C000EF90CF90AF900895AF92CF92EF920F938A
:1027D000CF93DF9300D000D0CDB7DEB743E0BE018A
:1027E0006F5F7F4F01960E9487038AE68093E00225
:1027F00094E29093DF0291E29093DE028093DD02F7
:1028000080E88C83A12CC12C8FE0E82E03E026E029
:1028100043E060E0CE0101960E948D120F900F9070
:102820000F900F90DF91CF910F91EF90CF90AF90DD
:1028300008959F92AF92BF92CF92DF92EF92FF9254
:102840000F931F93CF93DF93CDB7DEB769970FB682
:10285000F894DEBF0FBECDBF7E012DE0E20EF11C6D
:102860004BE0B70101960E948703982E85E3809381
:10287000E00296E19093DF029093DE028093DD0206
:10288000692DC7010E940C06F701E90DF11D808337
:102890009394198E1982670127E0AA24A394B12C7E
:1028A0008C2D8E198915E8F0A12CC12C8AE0E82E18
:1028B00003E0498D6AE0CE0101960E948D1269966F
:1028C0000FB6F894DEBF0FBECDBFDF91CF911F9141
:1028D0000F91FF90EF90DF90CF90BF90AF909F90BF
:1028E000089510E000E0C501002E01C0880F0A9491
:1028F000EAF7F6019081AE01475E5F4FBE016F5F60
:102900007F4F89230E941B04282F0F5F1F4F043025
:10291000110549F7AE01475E5F4FBE016F5F7F4F04
:1029200081E00E941B04282FC501002E01C0880FE2
:102930000A94EAF7F6019081AE01475E5F4FBE014F
:102940006F5F7F4F89230E941B04282F0F5F1F4F4B
:102950000830110549F7AE01475E5F4FBE016F5F5A
:102960007F4F81E00E941B04282FFFEFCF1ADF0A60
:1029700097CFAF92BF92CF92DF92EF92FF920F93D9
:102980001F93CF93DF93CDB7DEB769970FB6F89457
:10299000DEBF0FBECDBF7E012DE0E20EF11C4BE08D
:1029A000B70101960E9487038930C1F529E1209380
:1029B000DF022093E0022093DE0222E32093DD0277
:1029C00099276E01E6E1CE0ED11C40E0F60152914E
:1029D0008F014527EE15FF0591F5F701E80FF91F67
:1029E0004083198E1982F9E0CF0ED11C27E0AA246A
:1029F000A394B12CF12CE12C0C151D0511F522230B
:102A000009F445C02150A12CC12C8AE0E82E03E036
:102A1000498D6CE0CE0101960E948D1269960FB629
:102A2000F894DEBF0FBECDBFDF91CF911F910F9104
:102A3000FF90EF90DF90CF90BF90AF900895680126
:102A4000C5CFC5010E2C01C0880F0A94EAF7F80122
:102A50009081AE01475E5F4FBE016F5F7F4F89235C
:102A60000E941B04282FFFEFEF1AFF0A88E0E816E8
:102A7000F10411F6AE01475E5F4FBE016F5F7F4FFD
:102A800081E00E941B04282F0F5F1F4FB3CF898D59
:102A90008F5F898F27E0B7CFAF92CF92EF920F93DE
:102AA000CF93DF93CDB7DEB760970FB6F894DEBF54
:102AB0000FBECDBF40E1BE016F5F7F4F01960E9408
:102AC000870369814A810B818C818093E0028D812B
:102AD0008093DF028E818093DE028F818093DD02FE
:102AE000E02EE2948FE0E8220F70242F2F704295A1
:102AF0004F70A12CC12CCE0108960E948D126096B9
:102B00000FB6F894DEBF0FBECDBFDF91CF910F910E
:102B1000EF90CF90AF9008959F92AF92BF92CF92D7
:102B2000DF92EF92FF920F931F93CF93DF93CDB776
:102B3000DEB72D970FB6F894DEBF0FBECDBF022FC4
:102B4000FC01E60FF11D162F11113AC040839924A4
:102B50009394960E1D8619827C0127E0CC24C394A1
:102B6000D12C97E0A92EB12C191588F1222309F454
:102B70005DC0215089E18093DF028093E00285E20D
:102B80008093DD028093DE02A12CC12C8AE0E82E26
:102B90004D856CE0CE0101960E948D122D960FB6E8
:102BA000F894DEBF0FBECDBFDF91CF911F910F9183
:102BB000FF90EF90DF90CF90BF90AF909F900895DF
:102BC0001150DC01A10FB11D2C91420FBDCFC601E8
:102BD0000A2C01C0880F0A94EAF7F7019081AE0130
:102BE000435F5F4FBE016F5F7F4F89230E941B04CD
:102BF000282FF1E0AF1AB10808F0B6CFF7018191A4
:102C00007F01082E82958025082E86958695802541
:102C10008F5F86958170AE01435F5F4FBE016F5F2E
:102C20007F4F0E941B04282F1F5F9BCF8D858F5FD6
:102C30008D8727E09FCFCF93DF93CDB7DEB72C975B
:102C40000FB6F894DEBF0FBECDBF4BE0BE016F5F85
:102C50007F4F01960E94870323E046E0682FCE0154
:102C600001960E948C152C960FB6F894DEBF0FBE0D
:102C7000CDBFDF91CF91089586E30E94E807809150
:102C80002D058335A1F08BE40E94A90721E04CE0DB
:102C900065E08BE295E00E948C150E94ED07809123
:102CA000200486FF06C08BE295E00C94FF068BE9BA
:102CB000EBCF08950E943C1680912D05893631F0A6
:102CC00081E08093BF0189E28093BE01089594E082
:102CD000899FF0011124E455FE4F80818F3F91F0D0
:102CE0008093A70181818093A80182818093A901AB
:102CF00083818093AA0121E04CE064E087EA91E0BF
:102D00000C948C1508954F925F926F927F928F92E0
:102D10009F92AF92BF92FF920F931F93CF93DF9337
:102D2000EC018B01F880F39424E630E0672B11F47A
:102D300030E020E048E0F49EC00111246AE070E039
:102D40000E944F30620F731F4B01072E000CAA0820
:102D5000BB088091DB029091DC022C01712C612C6C
:102D6000481459046A047B0488F483E195E0DF91F8
:102D7000CF911F910F91FF90BF90AF909F908F9038
:102D80007F906F905F904F900C949406861B970BEA
:102D90009093DC028093DB0280911E04811102C0BB
:102DA0000E94CA0885E30E9413098D3029F18AE543
:102DB0000E947A0685E40E947A0682E50E947A06DD
:102DC00082E50E947A0681E30E947A0685E30E94EA
:102DD00013090E94FB060E948E06DF91CF911F917E
:102DE0000F91FF90BF90AF909F908F907F906F90CA
:102DF0005F904F900C94CA0880907A0290907B026A
:102E0000A0907C02B0907D02240135018FEF481A1A
:102E1000580A680A780A81149104A104B104C1F423
:102E20000E94080885E30E941309833161F18AE555
:102E30000E947A0685E40E947A0682E50E947A065C
:102E400082E50E947A0682E3BFCF81E00E94A90753
:102E50008091E5029091E602A091E702B091E8022C
:102E600088169906AA06BB0681F38091E502909127
:102E7000E602A091E702B091E80284159505A60547
:102E8000B70519F3CDCF012B41F00AE010E084E63D
:102E90000E94A90701501109D1F72A988FE70E94D3
:102EA000E207BC2E0C2F1D2F802F8B198F1508F4D5
:102EB00052C02A9AC8EC85E30E9413098D3051F064
:102EC00085E30E941309833129F481E00E94A90758
:102ED000C15089F785E30E9413098D30C1F08AE55E
:102EE0000E947A0685E40E947A0682E50E947A06AC
:102EF00082E50E947A0683E30E947A0685E30E94B7
:102F000013090E94FB060E948E060E94CA08809147
:102F10001E04811102C00E94FC0F8091E502909175
:102F2000E602A091E702B091E80280937A029093C2
:102F30007B02A0937C02B0937D02DF91CF911F9121
:102F40000F91FF90BF90AF909F908F907F906F9068
:102F50005F904F900895F80181918F010E94E207E0
:102F6000A3CF0F931F93CF93DF93CDB7DEB76E97A9
:102F70000FB6F894DEBF0FBECDBF8C01FC0181817E
:102F8000823769F40E94CA086E960FB6F894DEBFC5
:102F90000FBECDBFDF91CF911F910F910895833761
:102FA00011F0863601F54DE1BE016F5F7F4FC8011C
:102FB00002960E9487038150990B298128171906D0
:102FC00029F08AE195E00E949406DECF61E070E08E
:102FD000F8018181833711F070E060E0CE01019645
:102FE0000E948316D1CF43E061E872E0813629F078
:102FF000873741F443E06EE772E0C80102960E9411
:103000008703C2CF10921E04BFCF1F93CF93DF93CD
:10301000CDB7DEB72C970FB6F894DEBF0FBECDBF8D
:10302000FC018BE0898381818A831B8282E08C830F
:1030300087818D8380858E8381858F838481888736
:103040008581898786818A871B861C8684E10E9408
:10305000A90770E060E0CE0101960E9483168AE520
:103060000E947A0610E08981811798F480912004EB
:1030700085FF03C080E00E94FB060E948E062C960E
:103080000FB6F894DEBF0FBECDBFDF91CF911F9179
:103090000895E1E0F0E0EC0FFD1FE10FF11D8081EC
:1030A0000E94FB061F5FDFCF8F929F92AF92BF926D
:1030B000CF92DF92EF92FF920F931F93CF93DF9304
:1030C000CDB7DEB7EA970FB6F894DEBF0FBECDBF1F
:1030D000FC0191819237E9F09235F1F481E080931F
:1030E00079020E942C0A81E080932204EA960FB6AE
:1030F000F894DEBF0FBECDBFDF91CF911F910F912E
:10310000FF90EF90DF90CF90BF90AF909F908F9007
:10311000089510927902E5CF933709F0B9C041E3E1
:103120008E010F5F1F4FB801CF0102960E948703E7
:10313000F82E282F2150330BC90129812817190691
:10314000A9F680912204811105C00E942C0A83E017
:103150000E94A907EB808A8196E789278A8322E06B
:10316000422F50E0F801E40FF51F90818981281764
:1031700008F45AC08E2D89278083CE01C7960E94FD
:10318000B20785E30E94E80785E30E9413098331B3
:1031900009F453C0CE01C3960E94B2074BA95CA9A3
:1031A0006DA97EA98FA998ADA9ADBAAD8417950771
:1031B000A607B70760F44A015B01881A990AAA0AB0
:1031C000BB0AEDEB8E169104A104B10470F448170C
:1031D00059076A077B0788F584549F4FAF4FBF4F4D
:1031E00084179507A607B70740F58DEC94E00E9479
:1031F000940685E30E941309863149F48BE30E940B
:10320000E80786E30E94E8078DE30E94E8078091C3
:1032100022048823D1F184E30E94E80785E30E9419
:1032200013098D30C1F762CF4C0F5D1FDA018C910D
:103230008452892780832F5F93CF85E30E941309EF
:10324000833109F09ECF8AE0E4FE07C088E70E9440
:10325000A90788E70E94A90788E70E94A9072A987A
:103260008FE70E94E20768018C2D801B8F1538F0D4
:103270002A9A85E30E9413098331D9F3BACFD60184
:103280008D916D010E94E207EFCF0E94FC0F2ECFBF
:10329000109222042BCFCF92DF92FF920F931F93B5
:1032A000CF93DF93EC0189818437B1F466E071E05C
:1032B000CE0102960E946D0360E08091060190911C
:1032C00007010E941D07DF91CF911F910F91FF9081
:1032D000DF90CF900C948E06833709F057C18A8116
:1032E000823761F464E071E0CE0103960E946D03C1
:1032F00060E08091040190910501E3CF299A8091CB
:103300006E02811117C080912204882329F081E088
:10331000809370021092220480911E04882329F069
:1033200081E080936F0210921E040E949F0E83E042
:103330000E94A90786E30E94E8078AE30E94E80743
:103340008BE30E94E8070E940808FE01019000201C
:10335000E9F7EC1BFEEFFF2EFE0E10E02296209107
:10336000040130910501812F012E000C990B821769
:10337000930768F080916E02882309F4EBC0809176
:103380002004882309F4D1C00E94ED07D1C0E1E2F6
:10339000FE120CC05B9A80910601909107010E9479
:1033A000B6035B9888E29AE00E94B6036E0101E0E2
:1033B0000F157CF0F1E25B9AFF12A6C084E091E069
:1033C0000E94B6035B9880EA98E20E94B6031F5FF2
:1033D000C6CFF60181916F018033E9F5F1E25B9A86
:1033E000FF1215C084E091E00E94B6035B9884E070
:1033F00091E00E94B6035B9A84E091E00E94B603DC
:103400005B9884E195E00E94B6030F5FD1CF809175
:103410000601909107010E94B6035B988091060116
:10342000909107019C01220F331F820F931F0E946E
:10343000B6035B9A80910601909107010E94B60342
:103440005B9880910601909107019C01220F331F28
:10345000820F931FD8CF8133D1F581E25B9AF812A6
:1034600012C084E091E00E94B6035B9884E195E08D
:103470000E94B6035B9A84E091E00E94B6035B98D9
:1034800084E091E0C0CF80910601909107019C01FA
:10349000220F331F820F931F0E94B6035B98809107
:1034A0000601909107010E94B6035B9A8091060184
:1034B000909107019C01220F331F820F931F0E94DE
:1034C000B6035B9880910601909107019CCFE1E2E1
:1034D0005B9AFE1208C084E091E00E94B6035B98FC
:1034E00084E091E0C5CF80910601909107010E9490
:1034F000B6035B9880910601909107019C01220F11
:10350000331F820F931FCFCF809106019091070147
:103510000E94B6035B980FE180910601909107012C
:103520000E94B6030150C1F752CF86E30E94E8071C
:10353000299889E60E947A0683E70E947A0611E0BC
:103540001F150CF0C0CE89918033E1F40E947A06F9
:103550001F5FF6CF80917002882341F010927002B5
:103560000E942C0A81E0809322040ECF80916F028A
:10357000882329F010926F020E94CA08D9CF0E94B6
:10358000FC0FD6CF813311F386E4E0CF8237F9F414
:1035900080912204882329F081E0809370021092A8
:1035A000220480911E04882329F081E080936F0219
:1035B00010921E040E949F0E81E080936E02DF91A4
:1035C000CF911F910F91FF90DF90CF900895863695
:1035D00051F58A818033F9F480E18093010180EB19
:1035E0008093020181E78093030189E60E947A06B5
:1035F00086E60E947A068AE30E947A06809101019B
:103600000E94FB06809102010E94FB06809103014B
:103610000E94FB0658CE43E061E071E0CE010296C5
:103620000E948703E2CF883729F5809170028823B2
:1036300051F0109270020E942C0A81E080932204C3
:103640000E94ED0708C080916F02882339F0109224
:103650006F020E94CA0810926E02B1CF82E090E021
:103660000E94AB0F809120048111EACF86E30E9473
:10367000E807F1CF833609F0A2CF66E071E0CE0112
:103680000196DF91CF911F910F91FF90DF90CF9026
:103690000C946D03FF920F931F93CF93DF93EC0174
:1036A000FC0101900020E9F731978F01081B190BED
:1036B0008981823779F487E390E00E94AB0F0E9402
:1036C000ED0781E08093D902DF91CF911F910F9197
:1036D000FF900895833729F5F02E2A988FE70E94EE
:1036E000E2078EEF800F0E94E207229612E01F157C
:1036F00078F02A9A0E9408088AE30E9413098F77BB
:1037000061F4DF91CF911F910F91FF900C94ED0721
:1037100089910E94E2071F5FEACF81E00E94A9071A
:10372000EBCF1092D902D0CF0E94AA2FF999FECFE9
:103730000895CF93DF931F92CDB7DEB7198200971C
:1037400039F041E0BE016F5F7F4F01960E94870311
:1037500089818F3F09F4FFCF882329F061E083E35B
:1037600090E00E94941B10926E00F89488E198E01B
:103770000FB6F894A895809360000FBE90936000F8
:10378000FFCF41E060E071E001960E9487038091E5
:10379000000180FF07C0299A6091000184E390E056
:1037A0000C94941B2998F8CFCF92DF92EF92FF925E
:1037B0000F931F93CF93DF9300D000D000D0CDB7ED
:1037C000DEB76C0143E0BE016F5F7F4F01960E9440
:1037D00087038230E8F0098110E0823029F0098106
:1037E0001A811027012710277C01FF24FE01EE0D0E
:1037F000FF1D6081C8010E94941BEE0CFF1C8FEF1F
:10380000E81AF80AEC0CFD1CF701808181110FC049
:1038100026960FB6F894DEBF0FBECDBFDF91CF91D5
:103820001F910F91FF90EF90DF90CF90089541E0AE
:10383000BE016F5F7F4FC7010E948703892B41F351
:103840000F5F1F4F6981C8010E94941BE2E0EE0EDA
:10385000F11CDACF8F929F92AF92BF92CF92DF92FC
:10386000EF92FF920F931F93CF93DF93CDB7DEB705
:1038700067970FB6F894DEBF0FBECDBF7C018C01F9
:103880000F5F1F4F45E0BE01635F7F4FC8010E947D
:103890008703843008F0F8C09D85913051F583305E
:1038A000F9F46E8585E390E00E94941B6F8586E3B2
:1038B00090E00E94941B0E94630F67960FB6F894E5
:1038C000DEBF0FBECDBFDF91CF911F910F91FF9053
:1038D000EF90DF90CF90BF90AF909F908F90089522
:1038E0008091A6010E94FB068091A5010E94FB0623
:1038F00035C0923009F051C0EE24E394813031F0AC
:1039000081E09E85913009F080E0E82E8091C00131
:10391000811104C089E291E00E94940600EC11E05C
:1039200015C021E0003C120719F080E20E947A06DF
:10393000F80181810E94FB06F80182810E94FB064A
:10394000E1100FC0F8018081080F111DF80180817E
:10395000882321F0F2E00E361F0718F30E948E062E
:10396000ACCF8AE30E947A0683E0F82EF8018081CA
:10397000F81640F7F3E0FF1528F4F0FE03C08CE2E0
:103980000E947A06DD24D394DF0CF801EF0DF11DBF
:1039900080810E94FB06FD2CE9CF933051F490E02A
:1039A00080E00E942E06805C91409EEA981B892F41
:1039B0009DCF903159F515E9E12E11E0F12E00E08F
:1039C00010E0F701D080FFEFDF1699F0112319F016
:1039D00080E20E947A06802F0E94FB068AE30E9402
:1039E0007A068D2D0E94FB06F70181810E94FB065D
:1039F0001F5FF2E0EF0EF11C0F5F083011F787E355
:103A000091E01111ABCF0E949406A8CF913151F4EF
:103A100080919301909194016DE770E00E943B309A
:103A2000862F64CF923109F099CF0CEA11E0E12C96
:103A3000F12CF801D080FFEFDF16D9F0FF2019F04C
:103A400080E20E947A068E2D0E94FB068AE30E9485
:103A50007A068D2D0E94FB06F80181810E94FB06EB
:103A6000F80182810E94FB06F80183810E94FB0617
:103A7000F3940C5F1F4FE394F4E0EF12DACFF110F0
:103A80006DCF83E391E0BFCF44E0BE016D5E7F4F19
:103A9000C8010E9487034B89493608F49BC02E89D0
:103AA0005C896D89ACEAB1E090E080E02C3009F0EF
:103AB00070C030E020E0FD01EC5AF1408C914813D9
:103AC0003BC011969C911197951336C012969C910C
:103AD0001297961331C0E455FE4F8CE08383C901E1
:103AE000880F991F820F931FFC01EE0FFF1FE558EF
:103AF000FE4F11821082880F991FFC01E358FE4F80
:103B00001182108222E04CE064E0CE0143960E94D4
:103B10008C158FE08E8B22E04CE064E0CE01439662
:103B20000E948C1582E08E8B22E04CE064E0CE0196
:103B300043960E948C15C1CE8F3FE9F4E455FE4FA9
:103B40004083518362838CE08383C901880F991F6E
:103B5000820F931FFC01EE0FFF1FE558FE4F1182ED
:103B60001082880F991FFC01E358FE4F11821082CA
:103B700010927A01C7CF2F5F3F4F14962430310542
:103B800009F099CF9ACE019614968430910509F4E4
:103B900094CEFD01EC5AF1403C914313F4CF1196C1
:103BA0003C9111973513EFCF12963C911297361333
:103BB000EACFE455FE4F2383FC01EE0FFF1FE80F11
:103BC000F91FEE0FFF1FE358FE4F81E090E0918355
:103BD000808373CEED852091A601E217F0F1822F4C
:103BE00090E00796E817190609F0BCF59E858091CC
:103BF000A501981332C098899F3269F44BE0BE0149
:103C00006F5F7F4FC8010E94870322E04CE0682F5E
:103C1000CE0101968ECF89899C32B9F480937901C7
:103C200021E030E0309394012093930124E0829FBF
:103C3000C00111242091DB023091DC02820F931F1E
:103C40009093DC028093DB0238CEE21BEE0FF0E0B3
:103C5000EB56FE4F9083818330CE90E080E00E944F
:103C60002E066C01F80101900020E9F73197E01B66
:103C7000F10BF695E79501E00E0FC601800F911D3F
:103C8000805C91408F3A91052CF08DE291E00E948A
:103C9000940613CEF6010083560111E0812F880FA0
:103CA0008150101758F0FEE6CF16F2E0DF0608F05C
:103CB00004CEF601E10FF11D1082FFCD4501FFEFAB
:103CC0008F1A9F0A41E0B4018E0D9F2D911D0E9415
:103CD0008703133048F010FD07C0F501808184365A
:103CE00019F48181809378011F5F5401D7CFEF923F
:103CF000FF920F931F93CF93C82F8A3008F0C8E02C
:103D000028E0C29F800111248BE290E00A551F4FEA
:103D1000FC01E00FF11F64917C012FEFE21AF20A1F
:103D20000E94941BC7018333910591F7C55067E149
:103D3000C53008F461E184E290E0CF911F910F91CA
:103D4000FF90EF900C94941B0F931F93CF93DF93EE
:103D5000EC0161E090E080E00E94941B63E481E06C
:103D600090E00E94941B82E090E0FC01E659FE4F37
:103D700064918C010F5F1F4F0E94941BC8010B328E
:103D8000110599F787E390E0FC01E45FFE4F649131
:103D90008C010F5F1F4F0E94941BC8010036110554
:103DA00099F74C991EC060E18FE090E00E94941B4F
:103DB00060EB80E190E00E94941B61E781E190E07C
:103DC0000E94941B60E184E490E00E94941B60EBED
:103DD00085E490E00E94941B61E786E490E00E94F5
:103DE000941B88E00E94771E60E080E690E00E94CD
:103DF000941B60E081E690E00E94941B60E083E306
:103E000090E00E94941B62E084E390E00E94941B87
:103E10008981883721F090E080E00E94991BDF9132
:103E2000CF911F910F910895CF93DF931F92CDB73C
:103E3000DEB722E0298341E0BE016F5F7F4F01962C
:103E40000E94870389810E94771E82E090E00E9491
:103E5000AB0F0F90DF91CF9108951F920F920FB685
:103E60000F9211242F933F934F935F936F937F9300
:103E70008F939F93AF93BF93EF93FF9385B192E09E
:103E8000892785B96091C6008091C000887121F4AE
:103E900087EA94E00E94D303FF91EF91BF91AF9125
:103EA0009F918F917F916F915F914F913F912F9152
:103EB0000F900FBE0F901F9018951F920F920FB684
:103EC0000F9211242F933F934F935F936F937F93A0
:103ED0008F939F93AF93BF93EF93FF9380919C0336
:103EE0008823B9F08AE993E00E94BB038093C6005F
:103EF000FF91EF91BF91AF919F918F917F916F91C2
:103F00005F914F913F912F910F900FBE0F901F9097
:103F100018958091C1008F7D8093C100E9CF1F92D9
:103F20000F920FB60F921124DF92EF92FF920F9330
:103F30001F932F933F934F935F936F937F938F9331
:103F40009F93AF93BF93CF93DF93EF93FF938091B2
:103F5000D9028823D9F082E08093D902FF91EF91B2
:103F6000DF91CF91BF91AF919F918F917F916F9191
:103F70005F914F913F912F911F910F91FF90EF9083
:103F8000DF900F900FBE0F901F9018950091840046
:103F900010918500F4E016950795FA95E1F7C09128
:103FA000D8022CE1C29FE0011124C056DD4F4881A8
:103FB000443049F40E32110588F20F34110558F0DF
:103FC0000E949304CBCF453031F40731110530F214
:103FD00008321105A8F74A9910C04450423040F405
:103FE00061E0CE010E94A40410928500109284002A
:103FF00010939F0200939E02B1CF80919E029091F8
:104000009F02081B190B10939D0200939C021092B3
:10401000850010928400473011F0493041F520911D
:104020009C0230919D022C3B310510F01A8296CFF4
:104030008A8181111CC02739310538F089E08883D5
:10404000109285001092840089CF80919E029091F9
:104050009F02493061F541E04A83A901415051096D
:10406000888F84179507F0F4298F8A8F8B8F28818A
:10407000283099F48A81811110C081E08A8380916F
:104080009E02888F8A8F80919C0290919D02898FD9
:104090008B3B9105D8F4880F8B8F24502230C0F4CD
:1040A00060E061C1282F220F220F280FDDCF41E0F1
:1040B0004A83AC01440F551F2417350710F41882AA
:1040C0004DCF888F2F5F298F2A8FD0CF8695E4CF51
:1040D00022E026BB00919E0210919F02C8018353EB
:1040E00092408B3B9105F0F480919C0290919D024F
:1040F0000A974797B8F486E0888F9EE0998F33E15E
:104100003A8F9B8F91E09A838883198287E08B8313
:104110001C8280EA9FE0909389008093880020931E
:104120006F001CCFD880D1104BC0C8014B970697A9
:10413000C8F480919C0290919D02845192404E97C8
:1041400088F488EF91E1909389008093880082E061
:1041500080936F001A8288E08883198287E08B83BE
:104160001C82FCCEC80109974C97B8F480919C0240
:1041700090919D028D5991098938934090F480EA7D
:104180009FE0909389008093880082E080936F0085
:104190001A8287E088831982E2CF0536110508F07C
:1041A000DDCE80919C0290919D028536910508F0AC
:1041B000D5CE088F898F81E08A8382E08883CECE36
:1041C000E0909C02F0909D0282E0D8125CC022E058
:1041D0004E2D602FCE0148960E945E049A8188235E
:1041E000D1F0288D83E01127289F000D111D112487
:1041F0001595079515950795088F298DFF24289FFC
:10420000E00CF11C1124F594E794F594E794E98E01
:104210009F5F9A83A3CE9430A0F120EA3FE03093D1
:104220008900209388009C3058F0888D998D890FE3
:104230009927991F853691052CF084E0888311C059
:104240009A30E8F0888D998D890F9927991F859765
:10425000B4F485E0888388EE93E09093890080939E
:10426000880080919E028A8F80919C028B8F198298
:1042700087E08B831C8282E080936F006FCE83E0A7
:10428000DDCF188252CF26E0D21239C0FF240B3086
:104290001105D0F460E0CE010E94A404988D83E063
:1042A000989F000D111D11241595079515950795DB
:1042B000088F998D989FE00CF11C1124F594E794D8
:1042C000F594E794E98E4ACE61E0CE010E94A40401
:1042D0009A8D83E01127989F000D111D11241595CB
:1042E0000795159507950A8F9B8D989FE00CF11CFB
:1042F0001124F594E794F594E794EB8E2FCE38E0F3
:10430000D31226C0C7018F5691094D9740F460E043
:10431000CE010E94A404988D83E01127C1CFC7016C
:10432000875E9109879708F019CE61E0CE010E945F
:10433000A4049A8D83E01127989F000D111D11246C
:1043400015950795159507950A8F9B8DFF24CDCF61
:1043500089E0D8120CC02E2D2C50330B61E00217CF
:1043600013060CF09DCECE010E94A404F7CD2D2D96
:104370004E2D602FCE014A960E945E048111D5CF4A
:104380002D2D4E2D602FCE0148960E945E0488236D
:1043900099F060E0CE010E94A404988D83E011277B
:1043A000989F000D111D11241595079515950795DA
:1043B000088F998DFF247ECF37E0D31201CECECD6A
:1043C0001F920F920FB60F9211242F933F934F938A
:1043D0005F936F937F938F939F93AF93BF93EF936D
:1043E000FF9310926F00809188009091890020E2E5
:1043F0003EE4309389002093880090938500809359
:1044000084008091200483FF03C08EE20E947A061C
:104410008091D8029CE1899FF0011124E056FD4F64
:104420009081933018F09181923098F40E94930417
:10443000FF91EF91BF91AF919F918F917F916F917C
:104440005F914F913F912F910F900FBE0F901F9052
:10445000189590919B02913049F48091200482FF3D
:10446000E5CF83E295E00E949406E0CF9F5F9093B2
:104470009B028F5F823019F08093D802D9CF1092BF
:10448000D802D6CF1F920F920FB60F9211248F939E
:104490009F93AF93BF93EF93FF938091E502909129
:1044A000E602A091E702B091E8020196A11DB11DBC
:1044B0008093E5029093E602A093E702B093E802AE
:1044C000809177018F5F80937701EBE7F1E0808146
:1044D0009181181619061CF40197918380833696F2
:1044E00081E0E339F80799F7809193019091940165
:1044F000009729F001979093940180939301809104
:10450000BE018F3F19F081508093BE01FF91EF9162
:10451000BF91AF919F918F910F900FBE0F901F9001
:104520001895CF93DF93CDB7DEB7C05BD1090FB637
:10453000F894DEBF0FBECDBF0FB6F894A89580915A
:104540006000886180936000109260000FBE80E878
:1045500030E020E00FB6F894809361002093610072
:104560000FBE5C9A5D9A219A299A2D9A84B18C6229
:1045700084B9249880E58CBD8DB581608DBD90E0B7
:1045800080E00E94690B813031F481E090E00E946C
:10459000690B833421F090E080E00E94A41E84E344
:1045A00090E00E94690B8093000189EF87BD84E051
:1045B00085BD82E084BD80936E00109280009AE0F9
:1045C0009093810094B7977F94BF98E12FE00FB646
:1045D000F894A895909360000FBE2093600080939C
:1045E000C00089E190E09093C5008093C40088E901
:1045F0008093C10086E08093C2000E94630F539AAB
:104600005B9852988091690081608093690082EC88
:1046100091E09093DC028093DB021092BC02109236
:104620001D048AEE9AE0909376018093750181E0F3
:1046300080932A052998789467E0662E712C9E0154
:104640002F5F3F4F7901AE01455F5F4FC755DF4F89
:1046500059834883C95AD040CE010996C555DF4FCA
:1046600099838883CB5AD040E0917501F09176010F
:1046700081E009958091C10085FD09C080919C036E
:10468000882329F08091C10080628093C10000914D
:104690009C0210919D0201151105A9F18091200441
:1046A00087FF14C084E30E9413098058803408F403
:1046B000ECC0803C08F0EBC08055990B53E0959519
:1046C00087955A95E1F78F590E947A0680912004C8
:1046D00083FF15C082E70E947A068091200484FF40
:1046E00004C080919E020E947A0686E60E947A06A5
:1046F0008091200484FF03C0802F0E947A061092CC
:104700009D0210929C0280919B02882309F496C21C
:10471000299AC09061019CE1C99E80011124005634
:104720001D4FF80180813181873009F0B2C03330EC
:1047300009F0B4C0F8019381973009F0AFC0349606
:10474000A4E8B2E090E03913C6C03093980249E67D
:10475000D42E9AEF980F933008F484C3D1105CC024
:104760001B8297E09C834801F4E08F0E911C9A8293
:104770008982853009F0DFC028E0329FC001112412
:10478000F8012381A301421B5109840F951F803931
:10479000910509F0D0C010929802BFE0AB2EB0EFA7
:1047A000BB2E89E8482E80919802282F30E05524AE
:1047B0005394580EA9014C575D4FC155DF4F598393
:1047C0004883CF5AD04041E068E08F3008F4A0C061
:1047D000C7010E94F204A80EB11C50929802809565
:1047E000C155DF4FE881F981CF5AD040808341E045
:1047F00068E0C7010E94F20490E0982F8827A81A69
:10480000B90A41E068E0C7010E94F2048A151B045E
:1048100009F091C0E3E5DE2E9091200490FF53C192
:1048200080919A028E7F8B7F80939A0291FD45C37F
:104830002091980280916001821326C3ECE4F1E09C
:10484000A4E8B2E080E0281314C3209360014091F3
:10485000E5025091E6026091E7027091E8028090D3
:10486000480190904901A0904A01B0904B0148192D
:1048700059096A097B09463251056105710508F03D
:1048800003C380919A028160FDC280E01CCF8FE05B
:104890001ACF893019F4383009F44CCF232F333034
:1048A00011F00C94512DF8019381973011F00C9474
:1048B000572D883011F00C94572D948190938402D9
:1048C0009581909385029681909386023093980209
:1048D00023E7D22E3ECF21912D939F5F34CFF80155
:1048E00093813496A4E8B2E091110C94572D215095
:1048F00059F42BE020939802F801278592130C9429
:10490000572D92E7D92E25CF4191940F4D93EFCF9C
:10491000C7010E94F204A80EB11C4826C155DF4F02
:10492000E881F981CF5AD0404082A4E24A2E480E55
:104930005092980238CF66E4C8010E942F05882360
:10494000A9F180919802815080939802282F96E0D7
:10495000211118C0E82FF0E0EC57FD4F30813913DA
:1049600002C0843060F4492F50E04F5F5F4F34172E
:10497000150609F0B9C1843008F4B6C1908346E445
:10498000D42E4ACF2150E22FF0E0EC57FD4F30817A
:10499000930FDECF9150E92FF0E0EC57FD4F4081AF
:1049A000240F9111F7CF321709F4A1C165E4C801B2
:1049B0000E942F058111A1C11B8287E08C839A82FE
:1049C000898210929802F8018181F8E08F9FC001DE
:1049D0001124F8012381A301421B5109840F951F63
:1049E000853491050CF0CDC11B8287E08C839A82BF
:1049F0008982F8018181843021F58381813009F534
:104A00001092980280919802A82EB12CDD24D394A4
:104A1000D80E41E0843008F4E7C167E0C7010E9486
:104A2000F204F501EC57FD4F880F8083D092980275
:104A30008091840282958F7064E7D62E8A3009F4C3
:104A4000EBCE90909E025801FAE1AF0EB11CF80136
:104A50002081438D692DC5010E945E04682FC80125
:104A60000E94A4046BE4C8010E942F058823B1F0C2
:104A7000D0909802DA94D09298026D2D84E892E05A
:104A80000E940C06909199022D2D291B330BF901E0
:104A9000EC57FD4F9081891709F4E8C1F801838133
:104AA00091E0980F9383873021F4818113828150A4
:104AB0008183F8018181843029F4F8018381843075
:104AC00009F4A5C1D12C8091200482FF60C080E749
:104AD0000E947A06F801808162E090E00E941D0742
:104AE000F801808D65E0F0E18F9FC00111240E94E4
:104AF0001D07F801818D65E0F0E18F9FC001112451
:104B00000E941D07F801828D65E0F0E18F9FC001D2
:104B100011240E941D07F801838D65E0F0E18F9F4D
:104B2000C00111240E941D07F801828163E090E01A
:104B30000E941D07F801818163E090E00E941D073B
:104B4000F801838162E09301281B3109C9010E94A9
:104B50001D0780E20E947A068091200485FF08C02C
:104B600084E30E9413090E94FB0680E20E947A06F9
:104B7000F8018381873019F081818F5F8183B12CA7
:104B8000F8018181B81608F406C20E948E06F80169
:104B9000108280919B02815080939B0281E08C0D5A
:104BA000823009F400C2809361012998F4E5DF1294
:104BB00045C0A09084020091850210918602D09099
:104BC0008702B09088028FE58093BE011092BF01EA
:104BD000C090A601C11004C08091A501882371F185
:104BE00080912B05A81204C080912C05081731F084
:104BF0000E946F06A0922B0500932C050091BD0129
:104C00000F3FE1F010932D05D0922E05B0922F05A5
:104C1000112309F4DAC10111D8C1BC1409F4C6C1C9
:104C200024E6B21609F4C2C18DEA810F823018F071
:104C30001D3709F0BEC18FEF8093BD018091E50261
:104C40009091E602A091E702B091E8022091630101
:104C5000281709F4BAC28091E5029091E602A0916A
:104C6000E702B091E80280936301A8950BE711E099
:104C7000D12CC12C8AEFB82EF80180819181892B2B
:104C800009F01CC280917A01811118C2F601EE0F61
:104C9000FF1FEE0FFF1FE455FE4F8281877020E853
:104CA00030E0281B3109B29EC001B39E900D112443
:104CB0009595879595958795F80191838083848153
:104CC0009581019695838483228133812115310555
:104CD00009F0E8C1049709F0F1C18C2D0E94671614
:104CE000F80115821482EAC1982F2CE05ACE843044
:104CF00008F45CCE34E5D32E8FCD8091980281509C
:104D000080939802893009F057CEEDE8F2E080E018
:104D10009291892722E0E438F207D1F790918D0231
:104D200098134ACE25E4D22E77CDA52CB12C40E0A5
:104D300068E0C7010E94F204A5014C575D4F5A017B
:104D4000FA018083482E042C42944024042C46947B
:104D500046944024C7010E94D704439441FA222478
:104D600020F8312C8215130409F03ECEC7010E94B1
:104D7000D704811139CEF5018081D8265394509201
:104D8000980250909802F5E0F51578F640E068E05A
:104D9000C7010E94F204A82EB82E0B2CB294B024A6
:104DA0000B2CB694B694B024C7010E94D704B394D8
:104DB000B1FABB24B0F8C355DF4FB882CD5AD0400A
:104DC000C255DF4F1882CE5AD040C355DF4F2881DD
:104DD0003981CD5AD0408217130609F005CEDA107A
:104DE00003CE78E4D72E18CD81110CC067E0C7013F
:104DF0000E94F2048068F501EC57FD4F8083D09249
:104E0000980200CE68E0C7010E94F204F4CFD0807F
:104E10002D2D4EE16CE3C80148960E945E04882364
:104E200009F450CE2D2D4EE1692DC5010E945E047E
:104E3000682FC8010E94A404F80184818093840231
:104E40008581809385028681809386028781809305
:104E5000870280858093880285E08093980252E5DE
:104E6000D52EDACCDD2009F42DCED6CC9BE4D92E7C
:104E7000D3CC41913D918F5F431709F4E4CC8091ED
:104E80009A028D7F80939A02A4E8B2E0ECE4F1E00C
:104E900080E0281337C0209360014091E5025091D3
:104EA000E6026091E7027091E80240934801509356
:104EB000490160934A0170934B01F4E5DF1226C06B
:104EC00096FD1BC0809198028530B8F080918602D3
:104ED0008B3471F0893661F09DEA980F923040F082
:104EE0008D57823028F0809187028077803729F4AF
:104EF00080919A02816080939A0280919A0280FF49
:104F000012C014C03D9131938F5FC3CF29E6D216F2
:104F100019F033E7D312F1CF80919A02982F937052
:104F2000913021F48260846080939A0280919A0289
:104F300082FFC9CD8D2D0E947A06A0909902AA20E9
:104F400029F080919802815080939802B12CE091D1
:104F50009802BE16B8F0AA2049F0F0E0EC57FD4FD9
:104F600080818F7061E090E00E94B90680912004FA
:104F700085FF05C084E30E9413090E94FB060E947E
:104F80008E06A1CDEB2DF0E0EC57FD4F80810E9405
:104F9000FB06B394DCCFF801EB0DF11D84810E9478
:104FA000FB06B394EDCD10926101FFCD143509F4E9
:104FB00045CE8D2D807F803609F040CE8D2D8067C7
:104FC00080932E050E945A1639CE0E9453068111F5
:104FD00003C0002309F432CE8091BC01E82F811177
:104FE00005C0E02FF0E0E859FF4FE491E335D9F434
:104FF0001435C9F40E5F0093BD018823F1F0809150
:1050000031058E5F809331050E945306882381F01D
:1050100080912D058093BC018436A1F680917801A2
:1050200080932F05CFCF1E1741F30E946F0606CE47
:105030008091BD018E5F8093BD018091BD01E82FFD
:10504000F0E0E759FF4F14911F3F11F310932D0526
:1050500097E790932E05C0922F058E5F8093BD0138
:105060001092BC018E30B9F48BE295E00E942E06BE
:10507000FC01892B71F0A081B0E08EEA90E08A1BE0
:105080009B0B80549E4FAE0FBF1FE817F90738F0F7
:1050900010820E946F06112309F4D0CD93CF2D9179
:1050A0002193F3CF2130310509F0F5C18C2D0E94F9
:1050B000671622E030E0F80133832283FFEFCF1A36
:1050C000DF0A0A5F1F4F24E0C216D10409F0D4CDD5
:1050D0008091930190919401892B09F042C08091B5
:1050E000A5018A831B8290917901992309F4E1C17A
:1050F000933009F0DBC187E791E0909394018093AE
:10510000930105E911E0D12CECE2CE2EF80190815B
:105110009F3FC1F0209179018091A6018D0D898377
:10512000222309F4D7C1CC822D8321E04CE065E035
:10513000C7010E948C158091200486FF03C0C7011F
:105140000E94FF06D3940E5F1F4FF8E0DF12DECF00
:1051500080917901882329F0833009F0BFC1109232
:1051600079018091BE0181110DC01091BF01112301
:1051700009F4B8C10E943C1689E28093BE01115027
:105180001093BF01809177018D37F8F0109277016D
:105190008091000181FF04C085B192E0892785B923
:1051A0008091DB029091DC02843823E0920728F49E
:1051B00001969093DC028093DB02809162018F5F05
:1051C0008C3309F492C1809362018091D9028823C3
:1051D00019F1813009F096C18091E5029091E602C3
:1051E000A091E702B091E802209164012817A1F094
:1051F00085E30E941309813129F48AE30E94E807BC
:105200000E94ED078091E5029091E602A091E702ED
:10521000B091E80280936401809122048823B1F068
:105220004A9BD6C18FE30E9413098F77898382330B
:1052300008F499C18AE30E94E80786E30E94E80720
:105240008DE30E94E80784E30E94E80780911E0432
:10525000882309F46BC04A9B67C28FE30E9413093D
:105260008F778E3108F031C289832A988FEF0E94A0
:10527000E20710E08981181708F429C280E00E9433
:10528000E207082F80E00E94E2072A9A90918102AB
:10529000911108C080918202811104C08091830223
:1052A0008823B1F08C81803319F08F7E803481F4B3
:1052B000888598130DC0998580918202981308C043
:1052C0009A8580918302981303C0C7010E94051834
:1052D00080917E02811108C090917F02911104C0DB
:1052E000909180029923B1F099819B3099F49C812F
:1052F000903481F4988589130DC0998580917F023F
:10530000981308C09A8580918002981303C0C70142
:105310000E9405188091200484FFEDC18AE70E9455
:105320007A0610E08981811708F0DDC18091DA02E8
:10533000882381F14A9B37C28FE30E9413098F773C
:105340008E3108F001C289832A988FEF0E94E2070C
:1053500010E08981181708F4F9C180E00E94E20783
:10536000082F2A9A8AE30E94E80786E30E94E8074A
:105370008DE30E94E80784E30E94E80780912004FF
:1053800084FFF8C187E70E947A0610E089818117BF
:1053900008F0E8C180E1F70111928A95E9F7809160
:1053A0007302813009F050C080917802813009F495
:1053B0004BC04A9B49C0A8958BE30E941309182F44
:1053C0001F77198380917202823059F481EC90E04A
:1053D0000E949406812F0E94FB068FEA90E00E94B3
:1053E00094061F3010F08FE089832A988FEF0E9477
:1053F000E20710E0B12C7AEAD72E8981181708F459
:10540000E7C12A9AC0907202F2E0CF1204C08CEA7F
:1054100090E00E9494064AE050E065E671E0C70122
:105420000E946330892B09F4EFC18A81873009F02B
:10543000EBC18981893008F4E7C121E0B21609F493
:10544000E3C132E0C312E3C180919803882309F4D9
:105450000BC980919703882309F407C24091E502A4
:105460005091E6026091E7027091E8028091E102BA
:105470009091E202A091E302B091E40284179507B3
:10548000A607B70708F0F1C16091EE028FEE92E037
:105490000E941C09E9C82230310509F00FCE8C2D7D
:1054A0000E946716F801138212821BCC8DE790E0F0
:1054B00024CE877090E08A519F4F4DE7489F90011E
:1054C000499F300D112435952795309394012093F1
:1054D000930117CE9C8381818D8327CE8250809348
:1054E00079013FCE0E946F064DCE109262018091ED
:1054F00078018F5F8C3318F48093780166CE109218
:10550000780163CE8FE30E941309B82E87FD1AC07D
:105510002A988FEF0E94E2078E010F5F1F4F6801EC
:10552000A02E8C2D801B8B1588F02A9A81E0809309
:105530002A05802F8A198B1580F00E948E068FEF26
:1055400080932A0581E08093D90266CE80E00E9494
:10555000E207F60181936F01E4CFF80181918F0199
:105560000E947A06E6CF2A988FEF0E94E20710E0A9
:105570008981181708F476C080E00E94E207082F9E
:1055800080E00E94E2072A9A84E30E94E80785E30C
:105590000E9413098D30C1F78A8196E798279A8374
:1055A00092E0F701E90FF11D20813981931708F48A
:1055B00065C08B81822780838091200484FF6CC02A
:1055C00081E60E947A0610E08981811708F05CC0AC
:1055D00085E30E941309813029F0813161F48AE367
:1055E0000E94E80786E30E94E8078DE30E94E8072F
:1055F00084E30E94E80785E30E9413098D3009F0D7
:1056000025CE85E20E9413098F3309F01FCE85E273
:105610000E9413098F33F9F486E30E94E8078DE7AF
:1056200090E00E94940683E30E94E80710E085E37F
:105630000E941309813031F084E090E00E94B603AB
:105640001150A9F785E20E9413098F3321F486E7F0
:1056500090E00E94940684E30E94E80780778031FE
:10566000D1F7F4CD80E00E94E207E2E0F0E0EC0F39
:10567000FD1FE10FF11D80831F5F7ACF84528227C7
:1056800080839F5F822F8DCFF701E10FF11D808115
:105690000E947A061F5F98CF81E40E947A0610E08C
:1056A0008981811750F48091200485FF03C0802FE9
:1056B0000E94FB060E948E068BCFF701E10FF11DC1
:1056C00080810E94FB061F5FEBCF8DE1CDCD80E096
:1056D0000E94E207E2E0F0E0EC0FFD1FE10FF11D98
:1056E00080831F5FC7CDF701E10FF11D80810E940C
:1056F0007A061F5F17CE8AE50E947A0610E089813C
:10570000811750F48091200485FF03C0802F0E94F0
:10571000FB060E948E060ACEF701E10FF11D808183
:105720000E94FB061F5FEBCF85E30E9413098131C6
:1057300009F0FCCD8AE30E94E80786E30E94E807AF
:1057400084E30E94E807F2CD8DE1FDCD80E00E9468
:10575000E207E2E0F0E0EC0FFD1FE10FF11D8083B6
:105760001F5FF7CDF701E10FF11D80810E947A06DE
:105770001F5F0CCE87E50E947A0610E089818117B1
:1057800050F48091200485FF03C0802F0E94FB0607
:105790000E948E06FFCDF701E10FF11D80810E946E
:1057A000FB061F5FEBCF85E30E941309813019F0E0
:1057B000813109F0EFCD8AE30E94E80786E30E9479
:1057C000E8078DE30E94E80784E30E94E807E2CD42
:1057D00080E00E94E207E2E0F0E0EC0FFD1FE10F45
:1057E000F11D8083183048F4D826909172029230CF
:1057F00011F40E94FB061F5F00CE1830B1F78D1523
:10580000A1F3BB24B394F1CF41E0C4121DCE89EAC9
:1058100090E00E94940680E1F701A5E6B1E00190D6
:105820000D928A95E1F78E010E5F1F4FF80181916D
:105830008F010E94FB06C755DF4F28813981C95A65
:10584000D0400217130791F731E0C31209C0B31219
:1058500007C087E890E00E9494068D2D0E94FB0609
:1058600084E890E00E949406EFCD4A9902C00C941F
:105870003423299A2A988FEF0E94E207870180E05B
:105880000E94E207F80181938F0190919903993367
:1058900019F0319780958083C555DF4F2881398174
:1058A000CB5AD0400217130751F72A9AB88487EFD2
:1058B0008B0D803A20F00E942E080C9434236B2D1F
:1058C00086E00E942208809199035AE5C52ED12CCA
:1058D000813349F06CEDC62ED12C843321F048E998
:1058E000C42E43E0D42E20EA822E38E0A32E0B2DC6
:1058F00010E0C6010E94B6038BE30E941309982EA4
:10590000882389F04A2D480F5527551F041715077E
:1059100094F22A988FEF0E94E2079A0CA91026C0F1
:105920002A9AAB1418F48A948110E3CFD09099038B
:10593000FE01E00FF11F80816EEF6B0D51E3D51278
:1059400023C0EFEFFFEFEC0FFD1FE00FF11F008111
:1059500010E0102F0027080F111DC7010E94EA0355
:1059600021E008171907F1F020E01CC080E00E9438
:10597000E20790919903993309F08095F701EA0DB8
:10598000F11D8083A394CACFE62FF0E03196EE0D8F
:10599000FF1D9FEF22919227EE15FF05D9F721E019
:1059A0008913E2CFC090980382E7C8121CC0998186
:1059B0008091E90298136EC09A818091EA0298134F
:1059C00069C09B818091EB02981364C09C81809197
:1059D000EC0298135FC089859091ED02891719F048
:1059E0008F3F09F057C0222309F454C08AE70E9470
:1059F0007A068701F80181918F010E94FB06802FB2
:105A00008E198B15B8F30E948E06F2E7CF1242C0B2
:105A10008E81982F9370933029F490919703911170
:105A20001092970386FF36C087FD34C08AE00E943B
:105A3000A9078D8189878091ED028D8383E08E8314
:105A400021E3D2121AC08BE0888769E0C7010E9467
:105A5000EA039A878B876BE0C7010E941C098AE7DB
:105A60000E947A0681E60E947A0689850E94FB06DA
:105A70000E948E0629980C9434238AE08887FE01C0
:105A80003A968FEF92918927EE16FF06D9F78A870B
:105A90006AE0E2CF6FEF86E00E9422080E940408CD
:105AA000E9CF3C3021F4863011F40C946F24D12CD2
:105AB0000C94A9230F931F93CF93DF93823091050A
:105AC00010F482E090E0E0913405F091350530E08B
:105AD00020E0B0E0A0E0309799F42115310509F4F9
